{
  "_format": "hh-sol-artifact-1",
  "contractName": "XRPLClothesMarketplaceA",
  "sourceName": "contracts/contract.sol",
  "abi": [
    {
      "anonymous": false,
      "inputs": [
        {
          "indexed": true,
          "internalType": "address",
          "name": "nftContract",
          "type": "address"
        },
        {
          "indexed": true,
          "internalType": "uint256",
          "name": "tokenId",
          "type": "uint256"
        },
        {
          "indexed": true,
          "internalType": "address",
          "name": "seller",
          "type": "address"
        },
        {
          "indexed": false,
          "internalType": "uint256",
          "name": "price",
          "type": "uint256"
        }
      ],
      "name": "ClothesListed",
      "type": "event"
    },
    {
      "anonymous": false,
      "inputs": [
        {
          "indexed": true,
          "internalType": "address",
          "name": "nftContract",
          "type": "address"
        },
        {
          "indexed": true,
          "internalType": "uint256",
          "name": "tokenId",
          "type": "uint256"
        },
        {
          "indexed": true,
          "internalType": "address",
          "name": "seller",
          "type": "address"
        },
        {
          "indexed": false,
          "internalType": "address",
          "name": "buyer",
          "type": "address"
        },
        {
          "indexed": false,
          "internalType": "uint256",
          "name": "price",
          "type": "uint256"
        }
      ],
      "name": "ClothesPurchased",
      "type": "event"
    },
    {
      "inputs": [
        {
          "internalType": "address",
          "name": "nftContract",
          "type": "address"
        },
        {
          "internalType": "uint256",
          "name": "tokenId",
          "type": "uint256"
        }
      ],
      "name": "buyClothesWithXRPL",
      "outputs": [],
      "stateMutability": "payable",
      "type": "function"
    },
    {
      "inputs": [
        {
          "internalType": "address",
          "name": "",
          "type": "address"
        },
        {
          "internalType": "uint256",
          "name": "",
          "type": "uint256"
        }
      ],
      "name": "clothesForSale",
      "outputs": [
        {
          "internalType": "address",
          "name": "seller",
          "type": "address"
        },
        {
          "internalType": "uint256",
          "name": "price",
          "type": "uint256"
        }
      ],
      "stateMutability": "view",
      "type": "function"
    },
    {
      "inputs": [
        {
          "internalType": "address",
          "name": "nftContract",
          "type": "address"
        },
        {
          "internalType": "uint256",
          "name": "tokenId",
          "type": "uint256"
        },
        {
          "internalType": "uint256",
          "name": "price",
          "type": "uint256"
        }
      ],
      "name": "listClothesForSale",
      "outputs": [],
      "stateMutability": "nonpayable",
      "type": "function"
    }
  ],
  "bytecode": "0x608060405234801561001057600080fd5b5061049f806100206000396000f3fe6080604052600436106100345760003560e01c80630b66cae614610039578063365475461461004e5780639170ab12146100b9575b600080fd5b61004c6100473660046103e4565b6100d9565b005b34801561005a57600080fd5b506100966100693660046103e4565b6000602081815292815260408082209093529081522080546001909101546001600160a01b039091169082565b604080516001600160a01b03909316835260208301919091520160405180910390f35b3480156100c557600080fd5b5061004c6100d4366004610410565b610283565b6001600160a01b0380831660009081526020818152604080832085845282529182902082518084019093528054909316825260019092015491810182905290341461015e5760405162461bcd60e51b815260206004820152601060248201526f24b731b7b93932b1ba10383934b1b29760811b60448201526064015b60405180910390fd5b80516040516323b872dd60e01b81526001600160a01b0391821660048201523360248201526044810184905284918216906323b872dd90606401600060405180830381600087803b1580156101b257600080fd5b505af11580156101c6573d6000803e3d6000fd5b505083516040516001600160a01b0390911692503480156108fc029250906000818181858888f19350505050158015610203573d6000803e3d6000fd5b506001600160a01b03848116600081815260208181526040808320888452825280832080546001600160a01b031916815560010192909255855182513381523492810192909252909316928692917ff8738a2b2d6415af651e8a1a8529674954ed27b88cdd34368f5174e1a59995dc91015b60405180910390a450505050565b6040516331a9108f60e11b815260048101839052839033906001600160a01b03831690636352211e90602401602060405180830381865afa1580156102cc573d6000803e3d6000fd5b505050506040513d601f19601f820116820180604052508101906102f09190610445565b6001600160a01b0316146103465760405162461bcd60e51b815260206004820152601c60248201527f596f7520646f6e2774206f776e20746865736520636c6f746865732e000000006044820152606401610155565b6040805180820182523380825260208083018681526001600160a01b0389811660008181528085528781208b82528552879020955186546001600160a01b03191692169190911785559051600190940193909355925185815290928692917fb10cab910b4a09211b4bb43af2a976c831669e9b3e28667a173e5f35cf27c7dc9101610275565b6001600160a01b03811681146103e157600080fd5b50565b600080604083850312156103f757600080fd5b8235610402816103cc565b946020939093013593505050565b60008060006060848603121561042557600080fd5b8335610430816103cc565b95602085013595506040909401359392505050565b60006020828403121561045757600080fd5b8151610462816103cc565b939250505056fea264697066735822122035424a1fd9de39486870e2ee4a16c46539ec79671811daca16c162f755973f3164736f6c63430008120033",
  "linkReferences": {},
  "deployedLinkReferences": {}
}